{
  "_format": "hh-sol-artifact-1",
  "contractName": "EquityFund",
  "sourceName": "contracts/EquityFund.sol",
  "abi": [
    {
      "inputs": [],
      "stateMutability": "nonpayable",
      "type": "constructor"
    },
    {
      "anonymous": false,
      "inputs": [
        {
          "indexed": true,
          "internalType": "address",
          "name": "owner",
          "type": "address"
        },
        {
          "indexed": true,
          "internalType": "address",
          "name": "spender",
          "type": "address"
        },
        {
          "indexed": false,
          "internalType": "uint256",
          "name": "value",
          "type": "uint256"
        }
      ],
      "name": "Approval",
      "type": "event"
    },
    {
      "anonymous": false,
      "inputs": [
        {
          "indexed": false,
          "internalType": "uint256",
          "name": "amount",
          "type": "uint256"
        },
        {
          "indexed": false,
          "internalType": "uint256",
          "name": "shares",
          "type": "uint256"
        },
        {
          "indexed": false,
          "internalType": "address",
          "name": "holder",
          "type": "address"
        }
      ],
      "name": "Deposit",
      "type": "event"
    },
    {
      "anonymous": false,
      "inputs": [
        {
          "indexed": true,
          "internalType": "address",
          "name": "previousOwner",
          "type": "address"
        },
        {
          "indexed": true,
          "internalType": "address",
          "name": "newOwner",
          "type": "address"
        }
      ],
      "name": "OwnershipTransferred",
      "type": "event"
    },
    {
      "anonymous": false,
      "inputs": [
        {
          "indexed": true,
          "internalType": "address",
          "name": "from",
          "type": "address"
        },
        {
          "indexed": true,
          "internalType": "address",
          "name": "to",
          "type": "address"
        },
        {
          "indexed": false,
          "internalType": "uint256",
          "name": "value",
          "type": "uint256"
        }
      ],
      "name": "Transfer",
      "type": "event"
    },
    {
      "anonymous": false,
      "inputs": [
        {
          "indexed": false,
          "internalType": "address",
          "name": "holder",
          "type": "address"
        },
        {
          "indexed": false,
          "internalType": "uint256",
          "name": "maxShares",
          "type": "uint256"
        },
        {
          "indexed": false,
          "internalType": "uint256",
          "name": "maxLoss",
          "type": "uint256"
        },
        {
          "indexed": false,
          "internalType": "uint256",
          "name": "shares",
          "type": "uint256"
        },
        {
          "indexed": false,
          "internalType": "uint256",
          "name": "amount",
          "type": "uint256"
        },
        {
          "indexed": false,
          "internalType": "uint256",
          "name": "totalShares",
          "type": "uint256"
        }
      ],
      "name": "Withdraw",
      "type": "event"
    },
    {
      "inputs": [
        {
          "internalType": "address",
          "name": "owner",
          "type": "address"
        },
        {
          "internalType": "address",
          "name": "spender",
          "type": "address"
        }
      ],
      "name": "allowance",
      "outputs": [
        {
          "internalType": "uint256",
          "name": "",
          "type": "uint256"
        }
      ],
      "stateMutability": "view",
      "type": "function"
    },
    {
      "inputs": [
        {
          "internalType": "address",
          "name": "spender",
          "type": "address"
        },
        {
          "internalType": "uint256",
          "name": "amount",
          "type": "uint256"
        }
      ],
      "name": "approve",
      "outputs": [
        {
          "internalType": "bool",
          "name": "",
          "type": "bool"
        }
      ],
      "stateMutability": "nonpayable",
      "type": "function"
    },
    {
      "inputs": [],
      "name": "assets",
      "outputs": [
        {
          "internalType": "contract IERC20Upgradeable",
          "name": "",
          "type": "address"
        }
      ],
      "stateMutability": "view",
      "type": "function"
    },
    {
      "inputs": [
        {
          "internalType": "address",
          "name": "account",
          "type": "address"
        }
      ],
      "name": "balanceOf",
      "outputs": [
        {
          "internalType": "uint256",
          "name": "",
          "type": "uint256"
        }
      ],
      "stateMutability": "view",
      "type": "function"
    },
    {
      "inputs": [
        {
          "internalType": "uint256",
          "name": "amount",
          "type": "uint256"
        }
      ],
      "name": "burn",
      "outputs": [],
      "stateMutability": "nonpayable",
      "type": "function"
    },
    {
      "inputs": [
        {
          "internalType": "address",
          "name": "account",
          "type": "address"
        },
        {
          "internalType": "uint256",
          "name": "amount",
          "type": "uint256"
        }
      ],
      "name": "burnFrom",
      "outputs": [],
      "stateMutability": "nonpayable",
      "type": "function"
    },
    {
      "inputs": [],
      "name": "decimals",
      "outputs": [
        {
          "internalType": "uint8",
          "name": "",
          "type": "uint8"
        }
      ],
      "stateMutability": "view",
      "type": "function"
    },
    {
      "inputs": [
        {
          "internalType": "address",
          "name": "spender",
          "type": "address"
        },
        {
          "internalType": "uint256",
          "name": "subtractedValue",
          "type": "uint256"
        }
      ],
      "name": "decreaseAllowance",
      "outputs": [
        {
          "internalType": "bool",
          "name": "",
          "type": "bool"
        }
      ],
      "stateMutability": "nonpayable",
      "type": "function"
    },
    {
      "inputs": [
        {
          "internalType": "uint256",
          "name": "amount",
          "type": "uint256"
        }
      ],
      "name": "deposit",
      "outputs": [
        {
          "internalType": "uint256",
          "name": "",
          "type": "uint256"
        }
      ],
      "stateMutability": "nonpayable",
      "type": "function"
    },
    {
      "inputs": [
        {
          "internalType": "address",
          "name": "spender",
          "type": "address"
        },
        {
          "internalType": "uint256",
          "name": "addedValue",
          "type": "uint256"
        }
      ],
      "name": "increaseAllowance",
      "outputs": [
        {
          "internalType": "bool",
          "name": "",
          "type": "bool"
        }
      ],
      "stateMutability": "nonpayable",
      "type": "function"
    },
    {
      "inputs": [],
      "name": "name",
      "outputs": [
        {
          "internalType": "string",
          "name": "",
          "type": "string"
        }
      ],
      "stateMutability": "view",
      "type": "function"
    },
    {
      "inputs": [],
      "name": "owner",
      "outputs": [
        {
          "internalType": "address",
          "name": "",
          "type": "address"
        }
      ],
      "stateMutability": "view",
      "type": "function"
    },
    {
      "inputs": [],
      "name": "renounceOwnership",
      "outputs": [],
      "stateMutability": "nonpayable",
      "type": "function"
    },
    {
      "inputs": [],
      "name": "symbol",
      "outputs": [
        {
          "internalType": "string",
          "name": "",
          "type": "string"
        }
      ],
      "stateMutability": "view",
      "type": "function"
    },
    {
      "inputs": [],
      "name": "totalSupply",
      "outputs": [
        {
          "internalType": "uint256",
          "name": "",
          "type": "uint256"
        }
      ],
      "stateMutability": "view",
      "type": "function"
    },
    {
      "inputs": [
        {
          "internalType": "address",
          "name": "to",
          "type": "address"
        },
        {
          "internalType": "uint256",
          "name": "amount",
          "type": "uint256"
        }
      ],
      "name": "transfer",
      "outputs": [
        {
          "internalType": "bool",
          "name": "",
          "type": "bool"
        }
      ],
      "stateMutability": "nonpayable",
      "type": "function"
    },
    {
      "inputs": [
        {
          "internalType": "address",
          "name": "from",
          "type": "address"
        },
        {
          "internalType": "address",
          "name": "to",
          "type": "address"
        },
        {
          "internalType": "uint256",
          "name": "amount",
          "type": "uint256"
        }
      ],
      "name": "transferFrom",
      "outputs": [
        {
          "internalType": "bool",
          "name": "",
          "type": "bool"
        }
      ],
      "stateMutability": "nonpayable",
      "type": "function"
    },
    {
      "inputs": [
        {
          "internalType": "address",
          "name": "newOwner",
          "type": "address"
        }
      ],
      "name": "transferOwnership",
      "outputs": [],
      "stateMutability": "nonpayable",
      "type": "function"
    },
    {
      "inputs": [
        {
          "internalType": "uint256",
          "name": "maxShares",
          "type": "uint256"
        },
        {
          "internalType": "uint256",
          "name": "maxLoss",
          "type": "uint256"
        }
      ],
      "name": "withdraw",
      "outputs": [
        {
          "internalType": "uint256",
          "name": "",
          "type": "uint256"
        }
      ],
      "stateMutability": "nonpayable",
      "type": "function"
    }
  ],
  "bytecode": "0x60806040523480156200001157600080fd5b50600060019054906101000a900460ff166200003c5760008054906101000a900460ff16156200004d565b6200004c6200010960201b60201c565b5b6200008f576040517f08c379a0000000000000000000000000000000000000000000000000000000008152600401620000869062000171565b60405180910390fd5b60008060019054906101000a900460ff161590508015620000e0576001600060016101000a81548160ff02191690831515021790555060016000806101000a81548160ff0219169083151502179055505b8015620001025760008060016101000a81548160ff0219169083151502179055505b50620001f3565b600062000121306200012760201b62000c8c1760201c565b15905090565b6000808273ffffffffffffffffffffffffffffffffffffffff163b119050919050565b600062000159602e8362000193565b91506200016682620001a4565b604082019050919050565b600060208201905081810360008301526200018c816200014a565b9050919050565b600082825260208201905092915050565b7f496e697469616c697a61626c653a20636f6e747261637420697320616c72656160008201527f647920696e697469616c697a6564000000000000000000000000000000000000602082015250565b61317b80620002036000396000f3fe608060405234801561001057600080fd5b50600436106101215760003560e01c8063715018a6116100ad578063a457c2d711610071578063a457c2d71461030c578063a9059cbb1461033c578063b6b55f251461036c578063dd62ed3e1461039c578063f2fde38b146103cc57610121565b8063715018a61461028c57806371a973051461029657806379cc6790146102b45780638da5cb5b146102d057806395d89b41146102ee57610121565b8063313ce567116100f4578063313ce567146101c257806339509351146101e057806342966c6814610210578063441a3e701461022c57806370a082311461025c57610121565b806306fdde0314610126578063095ea7b31461014457806318160ddd1461017457806323b872dd14610192575b600080fd5b61012e6103e8565b60405161013b91906123e1565b60405180910390f35b61015e60048036038101906101599190611da5565b61047a565b60405161016b91906123ab565b60405180910390f35b61017c61049d565b6040516101899190612723565b60405180910390f35b6101ac60048036038101906101a79190611d56565b6104a7565b6040516101b991906123ab565b60405180910390f35b6101ca6104d6565b6040516101d79190612775565b60405180910390f35b6101fa60048036038101906101f59190611da5565b6104df565b60405161020791906123ab565b60405180910390f35b61022a60048036038101906102259190611e0a565b610589565b005b61024660048036038101906102419190611e5c565b61059d565b6040516102539190612723565b60405180910390f35b61027660048036038101906102719190611cf1565b610736565b6040516102839190612723565b60405180910390f35b61029461077f565b005b61029e610807565b6040516102ab91906123c6565b60405180910390f35b6102ce60048036038101906102c99190611da5565b61082d565b005b6102d861084d565b6040516102e591906122cf565b60405180910390f35b6102f6610877565b60405161030391906123e1565b60405180910390f35b61032660048036038101906103219190611da5565b610909565b60405161033391906123ab565b60405180910390f35b61035660048036038101906103519190611da5565b6109f3565b60405161036391906123ab565b60405180910390f35b61038660048036038101906103819190611e0a565b610a16565b6040516103939190612723565b60405180910390f35b6103b660048036038101906103b19190611d1a565b610b0d565b6040516103c39190612723565b60405180910390f35b6103e660048036038101906103e19190611cf1565b610b94565b005b6060603680546103f790612983565b80601f016020809104026020016040519081016040528092919081815260200182805461042390612983565b80156104705780601f1061044557610100808354040283529160200191610470565b820191906000526020600020905b81548152906001019060200180831161045357829003601f168201915b5050505050905090565b600080610485610caf565b9050610492818585610cb7565b600191505092915050565b6000603554905090565b6000806104b2610caf565b90506104bf858285610e82565b6104ca858585610f0e565b60019150509392505050565b60006012905090565b6000806104ea610caf565b905061057e818585603460008673ffffffffffffffffffffffffffffffffffffffff1673ffffffffffffffffffffffffffffffffffffffff16815260200190815260200160002060008973ffffffffffffffffffffffffffffffffffffffff1673ffffffffffffffffffffffffffffffffffffffff1681526020019081526020016000205461057991906127c2565b610cb7565b600191505092915050565b61059a610594610caf565b82611192565b50565b6000600260c95414156105e5576040517f08c379a00000000000000000000000000000000000000000000000000000000081526004016105dc90612683565b60405180910390fd5b600260c98190555060008311610630576040517f08c379a0000000000000000000000000000000000000000000000000000000008152600401610627906124e3565b60405180910390fd5b612710821115610675576040517f08c379a000000000000000000000000000000000000000000000000000000000815260040161066c906125a3565b60405180910390fd5b61067e33610736565b8311156106c0576040517f08c379a00000000000000000000000000000000000000000000000000000000081526004016106b790612503565b60405180910390fd5b6000806106cd858561136b565b915091506106db3382611393565b7fb7ee00edafdb5db3a1b52a5789a6b562eb48268842d113dbfe860b6f86e5f595338686858561070961049d565b60405161071b9695949392919061234a565b60405180910390a18092505050600160c98190555092915050565b6000603360008373ffffffffffffffffffffffffffffffffffffffff1673ffffffffffffffffffffffffffffffffffffffff168152602001908152602001600020549050919050565b610787610caf565b73ffffffffffffffffffffffffffffffffffffffff166107a561084d565b73ffffffffffffffffffffffffffffffffffffffff16146107fb576040517f08c379a00000000000000000000000000000000000000000000000000000000081526004016107f290612583565b60405180910390fd5b61080560006113e4565b565b600060029054906101000a900473ffffffffffffffffffffffffffffffffffffffff1681565b61083f82610839610caf565b83610e82565b6108498282611192565b5050565b6000609760009054906101000a900473ffffffffffffffffffffffffffffffffffffffff16905090565b60606037805461088690612983565b80601f01602080910402602001604051908101604052809291908181526020018280546108b290612983565b80156108ff5780601f106108d4576101008083540402835291602001916108ff565b820191906000526020600020905b8154815290600101906020018083116108e257829003601f168201915b5050505050905090565b600080610914610caf565b90506000603460008373ffffffffffffffffffffffffffffffffffffffff1673ffffffffffffffffffffffffffffffffffffffff16815260200190815260200160002060008673ffffffffffffffffffffffffffffffffffffffff1673ffffffffffffffffffffffffffffffffffffffff168152602001908152602001600020549050838110156109da576040517f08c379a00000000000000000000000000000000000000000000000000000000081526004016109d1906126c3565b60405180910390fd5b6109e78286868403610cb7565b60019250505092915050565b6000806109fe610caf565b9050610a0b818585610f0e565b600191505092915050565b6000600260c9541415610a5e576040517f08c379a0000000000000000000000000000000000000000000000000000000008152600401610a5590612683565b60405180910390fd5b600260c98190555060008211610aa9576040517f08c379a0000000000000000000000000000000000000000000000000000000008152600401610aa090612543565b60405180910390fd5b6000610ab583336114aa565b9050610ac133846114cc565b7fd68606c673aecac7ce24ec44fd7d77b401356dfd76fe9b36cb58e579c4220aed838233604051610af49392919061273e565b60405180910390a180915050600160c981905550919050565b6000603460008473ffffffffffffffffffffffffffffffffffffffff1673ffffffffffffffffffffffffffffffffffffffff16815260200190815260200160002060008373ffffffffffffffffffffffffffffffffffffffff1673ffffffffffffffffffffffffffffffffffffffff16815260200190815260200160002054905092915050565b610b9c610caf565b73ffffffffffffffffffffffffffffffffffffffff16610bba61084d565b73ffffffffffffffffffffffffffffffffffffffff1614610c10576040517f08c379a0000000000000000000000000000000000000000000000000000000008152600401610c0790612583565b60405180910390fd5b600073ffffffffffffffffffffffffffffffffffffffff168173ffffffffffffffffffffffffffffffffffffffff161415610c80576040517f08c379a0000000000000000000000000000000000000000000000000000000008152600401610c7790612443565b60405180910390fd5b610c89816113e4565b50565b6000808273ffffffffffffffffffffffffffffffffffffffff163b119050919050565b600033905090565b600073ffffffffffffffffffffffffffffffffffffffff168373ffffffffffffffffffffffffffffffffffffffff161415610d27576040517f08c379a0000000000000000000000000000000000000000000000000000000008152600401610d1e90612603565b60405180910390fd5b600073ffffffffffffffffffffffffffffffffffffffff168273ffffffffffffffffffffffffffffffffffffffff161415610d97576040517f08c379a0000000000000000000000000000000000000000000000000000000008152600401610d8e90612463565b60405180910390fd5b80603460008573ffffffffffffffffffffffffffffffffffffffff1673ffffffffffffffffffffffffffffffffffffffff16815260200190815260200160002060008473ffffffffffffffffffffffffffffffffffffffff1673ffffffffffffffffffffffffffffffffffffffff168152602001908152602001600020819055508173ffffffffffffffffffffffffffffffffffffffff168373ffffffffffffffffffffffffffffffffffffffff167f8c5be1e5ebec7d5bd14f71427d1e84f3dd0314c0f7b2291e5b200ac8c7c3b92583604051610e759190612723565b60405180910390a3505050565b6000610e8e8484610b0d565b90507fffffffffffffffffffffffffffffffffffffffffffffffffffffffffffffffff8114610f085781811015610efa576040517f08c379a0000000000000000000000000000000000000000000000000000000008152600401610ef190612483565b60405180910390fd5b610f078484848403610cb7565b5b50505050565b600073ffffffffffffffffffffffffffffffffffffffff168373ffffffffffffffffffffffffffffffffffffffff161415610f7e576040517f08c379a0000000000000000000000000000000000000000000000000000000008152600401610f75906125e3565b60405180910390fd5b600073ffffffffffffffffffffffffffffffffffffffff168273ffffffffffffffffffffffffffffffffffffffff161415610fee576040517f08c379a0000000000000000000000000000000000000000000000000000000008152600401610fe590612403565b60405180910390fd5b610ff98383836114db565b6000603360008573ffffffffffffffffffffffffffffffffffffffff1673ffffffffffffffffffffffffffffffffffffffff16815260200190815260200160002054905081811015611080576040517f08c379a0000000000000000000000000000000000000000000000000000000008152600401611077906124a3565b60405180910390fd5b818103603360008673ffffffffffffffffffffffffffffffffffffffff1673ffffffffffffffffffffffffffffffffffffffff1681526020019081526020016000208190555081603360008573ffffffffffffffffffffffffffffffffffffffff1673ffffffffffffffffffffffffffffffffffffffff168152602001908152602001600020600082825461111591906127c2565b925050819055508273ffffffffffffffffffffffffffffffffffffffff168473ffffffffffffffffffffffffffffffffffffffff167fddf252ad1be2c89b69c2b068fc378daa952ba7f163c4a11628f55a4df523b3ef846040516111799190612723565b60405180910390a361118c8484846114e0565b50505050565b600073ffffffffffffffffffffffffffffffffffffffff168273ffffffffffffffffffffffffffffffffffffffff161415611202576040517f08c379a00000000000000000000000000000000000000000000000000000000081526004016111f9906125c3565b60405180910390fd5b61120e826000836114db565b6000603360008473ffffffffffffffffffffffffffffffffffffffff1673ffffffffffffffffffffffffffffffffffffffff16815260200190815260200160002054905081811015611295576040517f08c379a000000000000000000000000000000000000000000000000000000000815260040161128c90612423565b60405180910390fd5b818103603360008573ffffffffffffffffffffffffffffffffffffffff1673ffffffffffffffffffffffffffffffffffffffff1681526020019081526020016000208190555081603560008282546112ed91906128a3565b92505081905550600073ffffffffffffffffffffffffffffffffffffffff168373ffffffffffffffffffffffffffffffffffffffff167fddf252ad1be2c89b69c2b068fc378daa952ba7f163c4a11628f55a4df523b3ef846040516113529190612723565b60405180910390a3611366836000846114e0565b505050565b6000806000611379856114e5565b90506113853386611192565b848192509250509250929050565b6113e08282600060029054906101000a900473ffffffffffffffffffffffffffffffffffffffff1673ffffffffffffffffffffffffffffffffffffffff166115ed9092919063ffffffff16565b5050565b6000609760009054906101000a900473ffffffffffffffffffffffffffffffffffffffff16905081609760006101000a81548173ffffffffffffffffffffffffffffffffffffffff021916908373ffffffffffffffffffffffffffffffffffffffff1602179055508173ffffffffffffffffffffffffffffffffffffffff168173ffffffffffffffffffffffffffffffffffffffff167f8be0079c531659141344cd1fd0a4f28419497f9722a3daafe3b4186f6b6457e060405160405180910390a35050565b6000806114b684611673565b90506114c28382611745565b8091505092915050565b6114d78230836118a6565b5050565b505050565b505050565b6000808211611529576040517f08c379a0000000000000000000000000000000000000000000000000000000008152600401611520906126e3565b60405180910390fd5b600061153361049d565b905080831115611578576040517f08c379a000000000000000000000000000000000000000000000000000000000815260040161156f906126a3565b60405180910390fd5b60006115826118fa565b905060008282866115939190612849565b61159d9190612818565b9050600085116115e2576040517f08c379a00000000000000000000000000000000000000000000000000000000081526004016115d990612563565b60405180910390fd5b809350505050919050565b61166e8363a9059cbb60e01b848460405160240161160c929190612321565b604051602081830303815290604052907bffffffffffffffffffffffffffffffffffffffffffffffffffffffff19166020820180517bffffffffffffffffffffffffffffffffffffffffffffffffffffffff8381831617835250505050611909565b505050565b60008082116116b7576040517f08c379a00000000000000000000000000000000000000000000000000000000081526004016116ae90612643565b60405180910390fd5b60006116c161049d565b905060008114156116d55782915050611740565b60006116df6118fa565b82856116eb9190612849565b6116f59190612818565b90506000811161173a576040517f08c379a0000000000000000000000000000000000000000000000000000000008152600401611731906124c3565b60405180910390fd5b80925050505b919050565b600073ffffffffffffffffffffffffffffffffffffffff168273ffffffffffffffffffffffffffffffffffffffff1614156117b5576040517f08c379a00000000000000000000000000000000000000000000000000000000081526004016117ac90612703565b60405180910390fd5b6117c1600083836114db565b80603560008282546117d391906127c2565b9250508190555080603360008473ffffffffffffffffffffffffffffffffffffffff1673ffffffffffffffffffffffffffffffffffffffff168152602001908152602001600020600082825461182991906127c2565b925050819055508173ffffffffffffffffffffffffffffffffffffffff16600073ffffffffffffffffffffffffffffffffffffffff167fddf252ad1be2c89b69c2b068fc378daa952ba7f163c4a11628f55a4df523b3ef8360405161188e9190612723565b60405180910390a36118a2600083836114e0565b5050565b6118f5838383600060029054906101000a900473ffffffffffffffffffffffffffffffffffffffff1673ffffffffffffffffffffffffffffffffffffffff166119d0909392919063ffffffff16565b505050565b6000611904611a59565b905090565b600061196b826040518060400160405280602081526020017f5361666545524332303a206c6f772d6c6576656c2063616c6c206661696c65648152508573ffffffffffffffffffffffffffffffffffffffff16611b0a9092919063ffffffff16565b90506000815111156119cb578080602001905181019061198b9190611de1565b6119ca576040517f08c379a00000000000000000000000000000000000000000000000000000000081526004016119c190612663565b60405180910390fd5b5b505050565b611a53846323b872dd60e01b8585856040516024016119f1939291906122ea565b604051602081830303815290604052907bffffffffffffffffffffffffffffffffffffffffffffffffffffffff19166020820180517bffffffffffffffffffffffffffffffffffffffffffffffffffffffff8381831617835250505050611909565b50505050565b60008060029054906101000a900473ffffffffffffffffffffffffffffffffffffffff1673ffffffffffffffffffffffffffffffffffffffff166370a08231306040518263ffffffff1660e01b8152600401611ab591906122cf565b60206040518083038186803b158015611acd57600080fd5b505afa158015611ae1573d6000803e3d6000fd5b505050506040513d601f19601f82011682018060405250810190611b059190611e33565b905090565b6060611b198484600085611b22565b90509392505050565b606082471015611b67576040517f08c379a0000000000000000000000000000000000000000000000000000000008152600401611b5e90612523565b60405180910390fd5b611b7085610c8c565b611baf576040517f08c379a0000000000000000000000000000000000000000000000000000000008152600401611ba690612623565b60405180910390fd5b6000808673ffffffffffffffffffffffffffffffffffffffff168587604051611bd891906122b8565b60006040518083038185875af1925050503d8060008114611c15576040519150601f19603f3d011682016040523d82523d6000602084013e611c1a565b606091505b5091509150611c2a828286611c36565b92505050949350505050565b60608315611c4657829050611c96565b600083511115611c595782518084602001fd5b816040517f08c379a0000000000000000000000000000000000000000000000000000000008152600401611c8d91906123e1565b60405180910390fd5b9392505050565b600081359050611cac81613100565b92915050565b600081519050611cc181613117565b92915050565b600081359050611cd68161312e565b92915050565b600081519050611ceb8161312e565b92915050565b600060208284031215611d0357600080fd5b6000611d1184828501611c9d565b91505092915050565b60008060408385031215611d2d57600080fd5b6000611d3b85828601611c9d565b9250506020611d4c85828601611c9d565b9150509250929050565b600080600060608486031215611d6b57600080fd5b6000611d7986828701611c9d565b9350506020611d8a86828701611c9d565b9250506040611d9b86828701611cc7565b9150509250925092565b60008060408385031215611db857600080fd5b6000611dc685828601611c9d565b9250506020611dd785828601611cc7565b9150509250929050565b600060208284031215611df357600080fd5b6000611e0184828501611cb2565b91505092915050565b600060208284031215611e1c57600080fd5b6000611e2a84828501611cc7565b91505092915050565b600060208284031215611e4557600080fd5b6000611e5384828501611cdc565b91505092915050565b60008060408385031215611e6f57600080fd5b6000611e7d85828601611cc7565b9250506020611e8e85828601611cc7565b9150509250929050565b611ea1816128d7565b82525050565b611eb0816128e9565b82525050565b6000611ec182612790565b611ecb81856127a6565b9350611edb818560208601612950565b80840191505092915050565b611ef08161292c565b82525050565b6000611f018261279b565b611f0b81856127b1565b9350611f1b818560208601612950565b611f2481612a42565b840191505092915050565b6000611f3c6023836127b1565b9150611f4782612a53565b604082019050919050565b6000611f5f6022836127b1565b9150611f6a82612aa2565b604082019050919050565b6000611f826026836127b1565b9150611f8d82612af1565b604082019050919050565b6000611fa56022836127b1565b9150611fb082612b40565b604082019050919050565b6000611fc8601d836127b1565b9150611fd382612b8f565b602082019050919050565b6000611feb6026836127b1565b9150611ff682612bb8565b604082019050919050565b600061200e602d836127b1565b915061201982612c07565b604082019050919050565b6000612031601e836127b1565b915061203c82612c56565b602082019050919050565b6000612054602d836127b1565b915061205f82612c7f565b604082019050919050565b60006120776026836127b1565b915061208282612cce565b604082019050919050565b600061209a6023836127b1565b91506120a582612d1d565b604082019050919050565b60006120bd6026836127b1565b91506120c882612d6c565b604082019050919050565b60006120e06020836127b1565b91506120eb82612dbb565b602082019050919050565b60006121036016836127b1565b915061210e82612de4565b602082019050919050565b60006121266021836127b1565b915061213182612e0d565b604082019050919050565b60006121496025836127b1565b915061215482612e5c565b604082019050919050565b600061216c6024836127b1565b915061217782612eab565b604082019050919050565b600061218f601d836127b1565b915061219a82612efa565b602082019050919050565b60006121b26028836127b1565b91506121bd82612f23565b604082019050919050565b60006121d5602a836127b1565b91506121e082612f72565b604082019050919050565b60006121f8601f836127b1565b915061220382612fc1565b602082019050919050565b600061221b602e836127b1565b915061222682612fea565b604082019050919050565b600061223e6025836127b1565b915061224982613039565b604082019050919050565b60006122616031836127b1565b915061226c82613088565b604082019050919050565b6000612284601f836127b1565b915061228f826130d7565b602082019050919050565b6122a381612915565b82525050565b6122b28161291f565b82525050565b60006122c48284611eb6565b915081905092915050565b60006020820190506122e46000830184611e98565b92915050565b60006060820190506122ff6000830186611e98565b61230c6020830185611e98565b612319604083018461229a565b949350505050565b60006040820190506123366000830185611e98565b612343602083018461229a565b9392505050565b600060c08201905061235f6000830189611e98565b61236c602083018861229a565b612379604083018761229a565b612386606083018661229a565b612393608083018561229a565b6123a060a083018461229a565b979650505050505050565b60006020820190506123c06000830184611ea7565b92915050565b60006020820190506123db6000830184611ee7565b92915050565b600060208201905081810360008301526123fb8184611ef6565b905092915050565b6000602082019050818103600083015261241c81611f2f565b9050919050565b6000602082019050818103600083015261243c81611f52565b9050919050565b6000602082019050818103600083015261245c81611f75565b9050919050565b6000602082019050818103600083015261247c81611f98565b9050919050565b6000602082019050818103600083015261249c81611fbb565b9050919050565b600060208201905081810360008301526124bc81611fde565b9050919050565b600060208201905081810360008301526124dc81612001565b9050919050565b600060208201905081810360008301526124fc81612024565b9050919050565b6000602082019050818103600083015261251c81612047565b9050919050565b6000602082019050818103600083015261253c8161206a565b9050919050565b6000602082019050818103600083015261255c8161208d565b9050919050565b6000602082019050818103600083015261257c816120b0565b9050919050565b6000602082019050818103600083015261259c816120d3565b9050919050565b600060208201905081810360008301526125bc816120f6565b9050919050565b600060208201905081810360008301526125dc81612119565b9050919050565b600060208201905081810360008301526125fc8161213c565b9050919050565b6000602082019050818103600083015261261c8161215f565b9050919050565b6000602082019050818103600083015261263c81612182565b9050919050565b6000602082019050818103600083015261265c816121a5565b9050919050565b6000602082019050818103600083015261267c816121c8565b9050919050565b6000602082019050818103600083015261269c816121eb565b9050919050565b600060208201905081810360008301526126bc8161220e565b9050919050565b600060208201905081810360008301526126dc81612231565b9050919050565b600060208201905081810360008301526126fc81612254565b9050919050565b6000602082019050818103600083015261271c81612277565b9050919050565b6000602082019050612738600083018461229a565b92915050565b6000606082019050612753600083018661229a565b612760602083018561229a565b61276d6040830184611e98565b949350505050565b600060208201905061278a60008301846122a9565b92915050565b600081519050919050565b600081519050919050565b600081905092915050565b600082825260208201905092915050565b60006127cd82612915565b91506127d883612915565b9250827fffffffffffffffffffffffffffffffffffffffffffffffffffffffffffffffff0382111561280d5761280c6129b5565b5b828201905092915050565b600061282382612915565b915061282e83612915565b92508261283e5761283d6129e4565b5b828204905092915050565b600061285482612915565b915061285f83612915565b9250817fffffffffffffffffffffffffffffffffffffffffffffffffffffffffffffffff0483118215151615612898576128976129b5565b5b828202905092915050565b60006128ae82612915565b91506128b983612915565b9250828210156128cc576128cb6129b5565b5b828203905092915050565b60006128e2826128f5565b9050919050565b60008115159050919050565b600073ffffffffffffffffffffffffffffffffffffffff82169050919050565b6000819050919050565b600060ff82169050919050565b60006129378261293e565b9050919050565b6000612949826128f5565b9050919050565b60005b8381101561296e578082015181840152602081019050612953565b8381111561297d576000848401525b50505050565b6000600282049050600182168061299b57607f821691505b602082108114156129af576129ae612a13565b5b50919050565b7f4e487b7100000000000000000000000000000000000000000000000000000000600052601160045260246000fd5b7f4e487b7100000000000000000000000000000000000000000000000000000000600052601260045260246000fd5b7f4e487b7100000000000000000000000000000000000000000000000000000000600052602260045260246000fd5b6000601f19601f8301169050919050565b7f45524332303a207472616e7366657220746f20746865207a65726f206164647260008201527f6573730000000000000000000000000000000000000000000000000000000000602082015250565b7f45524332303a206275726e20616d6f756e7420657863656564732062616c616e60008201527f6365000000000000000000000000000000000000000000000000000000000000602082015250565b7f4f776e61626c653a206e6577206f776e657220697320746865207a65726f206160008201527f6464726573730000000000000000000000000000000000000000000000000000602082015250565b7f45524332303a20617070726f766520746f20746865207a65726f20616464726560008201527f7373000000000000000000000000000000000000000000000000000000000000602082015250565b7f45524332303a20696e73756666696369656e7420616c6c6f77616e6365000000600082015250565b7f45524332303a207472616e7366657220616d6f756e742065786365656473206260008201527f616c616e63650000000000000000000000000000000000000000000000000000602082015250565b7f496e636f72726563742063616c6375616c74696f6e206f66207368617265732060008201527f647572696e6720697373696e6700000000000000000000000000000000000000602082015250565b7f53686172657320616d6f756e74206d757374206265206e6f6e2d7a65726f0000600082015250565b7f4d6f726520736861726573207370656369666965642c2073656e646572206e6f60008201527f74206861766520656e6f75676800000000000000000000000000000000000000602082015250565b7f416464726573733a20696e73756666696369656e742062616c616e636520666f60008201527f722063616c6c0000000000000000000000000000000000000000000000000000602082015250565b7f466f72206465706f73697420616d6f756e74206d757374206265206e6f6e2d7a60008201527f65726f0000000000000000000000000000000000000000000000000000000000602082015250565b7f496e636f72726563742063616c6375616c74696f6e206f66207368617265277360008201527f2076616c75650000000000000000000000000000000000000000000000000000602082015250565b7f4f776e61626c653a2063616c6c6572206973206e6f7420746865206f776e6572600082015250565b7f6d61784c6f737320697320626967676572203130302500000000000000000000600082015250565b7f45524332303a206275726e2066726f6d20746865207a65726f2061646472657360008201527f7300000000000000000000000000000000000000000000000000000000000000602082015250565b7f45524332303a207472616e736665722066726f6d20746865207a65726f20616460008201527f6472657373000000000000000000000000000000000000000000000000000000602082015250565b7f45524332303a20617070726f76652066726f6d20746865207a65726f2061646460008201527f7265737300000000000000000000000000000000000000000000000000000000602082015250565b7f416464726573733a2063616c6c20746f206e6f6e2d636f6e7472616374000000600082015250565b7f466f722069737375652073686172657320616d6f756e74206d7573742062652060008201527f6e6f6e2d7a65726f000000000000000000000000000000000000000000000000602082015250565b7f5361666545524332303a204552433230206f7065726174696f6e20646964206e60008201527f6f74207375636365656400000000000000000000000000000000000000000000602082015250565b7f5265656e7472616e637947756172643a207265656e7472616e742063616c6c00600082015250565b7f43616e6e6f742063616c6375616c74652076616c756520666f72206e6f74206560008201527f78697374696e6720736861726573000000000000000000000000000000000000602082015250565b7f45524332303a2064656372656173656420616c6c6f77616e63652062656c6f7760008201527f207a65726f000000000000000000000000000000000000000000000000000000602082015250565b7f466f7220657374696d6174652076616c75652073686172657320616d6f756e7460008201527f206d757374206265206e6f6e2d7a65726f000000000000000000000000000000602082015250565b7f45524332303a206d696e7420746f20746865207a65726f206164647265737300600082015250565b613109816128d7565b811461311457600080fd5b50565b613120816128e9565b811461312b57600080fd5b50565b61313781612915565b811461314257600080fd5b5056fea2646970667358221220c2aa76974639a73108a60d981932f591f72da27a12b0271e37365f9ef049ba4564736f6c63430008040033",
  "linkReferences": {},
  "deployedLinkReferences": {}
}