{
  "_format": "hh-sol-artifact-1",
  "contractName": "Lender",
  "sourceName": "contracts/Lender.sol",
  "abi": [
    {
      "anonymous": false,
      "inputs": [
        {
          "indexed": false,
          "internalType": "address",
          "name": "strategy",
          "type": "address"
        },
        {
          "indexed": false,
          "internalType": "uint256",
          "name": "amount",
          "type": "uint256"
        },
        {
          "indexed": false,
          "internalType": "uint256",
          "name": "strategyTotalAssets",
          "type": "uint256"
        },
        {
          "indexed": false,
          "internalType": "uint256",
          "name": "totalDebt",
          "type": "uint256"
        }
      ],
      "name": "Borrowed",
      "type": "event"
    },
    {
      "anonymous": false,
      "inputs": [
        {
          "indexed": true,
          "internalType": "address",
          "name": "previousOwner",
          "type": "address"
        },
        {
          "indexed": true,
          "internalType": "address",
          "name": "newOwner",
          "type": "address"
        }
      ],
      "name": "OwnershipTransferred",
      "type": "event"
    },
    {
      "anonymous": false,
      "inputs": [
        {
          "indexed": false,
          "internalType": "uint256",
          "name": "previusBalance",
          "type": "uint256"
        },
        {
          "indexed": false,
          "internalType": "uint256",
          "name": "targetBalance",
          "type": "uint256"
        },
        {
          "indexed": false,
          "internalType": "uint256",
          "name": "requestedAmount",
          "type": "uint256"
        },
        {
          "indexed": false,
          "internalType": "uint256",
          "name": "loss",
          "type": "uint256"
        }
      ],
      "name": "ReturnFromStrategy",
      "type": "event"
    },
    {
      "inputs": [],
      "name": "assets",
      "outputs": [
        {
          "internalType": "contract IERC20Upgradeable",
          "name": "",
          "type": "address"
        }
      ],
      "stateMutability": "view",
      "type": "function"
    },
    {
      "inputs": [
        {
          "internalType": "uint256",
          "name": "amount",
          "type": "uint256"
        }
      ],
      "name": "borrow",
      "outputs": [],
      "stateMutability": "nonpayable",
      "type": "function"
    },
    {
      "inputs": [],
      "name": "creditAvailable",
      "outputs": [
        {
          "internalType": "uint256",
          "name": "",
          "type": "uint256"
        }
      ],
      "stateMutability": "view",
      "type": "function"
    },
    {
      "inputs": [],
      "name": "owner",
      "outputs": [
        {
          "internalType": "address",
          "name": "",
          "type": "address"
        }
      ],
      "stateMutability": "view",
      "type": "function"
    },
    {
      "inputs": [],
      "name": "renounceOwnership",
      "outputs": [],
      "stateMutability": "nonpayable",
      "type": "function"
    },
    {
      "inputs": [
        {
          "internalType": "address",
          "name": "strategyAddress",
          "type": "address"
        }
      ],
      "name": "setStrategy",
      "outputs": [],
      "stateMutability": "nonpayable",
      "type": "function"
    },
    {
      "inputs": [],
      "name": "strategy",
      "outputs": [
        {
          "internalType": "contract IBorrower",
          "name": "",
          "type": "address"
        }
      ],
      "stateMutability": "view",
      "type": "function"
    },
    {
      "inputs": [],
      "name": "totalAssets",
      "outputs": [
        {
          "internalType": "uint256",
          "name": "",
          "type": "uint256"
        }
      ],
      "stateMutability": "view",
      "type": "function"
    },
    {
      "inputs": [],
      "name": "totalDebt",
      "outputs": [
        {
          "internalType": "uint256",
          "name": "",
          "type": "uint256"
        }
      ],
      "stateMutability": "view",
      "type": "function"
    },
    {
      "inputs": [
        {
          "internalType": "address",
          "name": "newOwner",
          "type": "address"
        }
      ],
      "name": "transferOwnership",
      "outputs": [],
      "stateMutability": "nonpayable",
      "type": "function"
    }
  ],
  "bytecode": "0x608060405234801561001057600080fd5b5061183f806100206000396000f3fe608060405234801561001057600080fd5b506004361061009e5760003560e01c80638da5cb5b116100665780638da5cb5b14610123578063a8c62e7614610141578063c5ebeaec1461015f578063f2fde38b1461017b578063fc7b9c18146101975761009e565b806301e1d114146100a3578063112c1f9b146100c157806333a100ca146100df578063715018a6146100fb57806371a9730514610105575b600080fd5b6100ab6101b5565b6040516100b891906113a0565b60405180910390f35b6100c961026e565b6040516100d691906113a0565b60405180910390f35b6100f960048036038101906100f49190610e97565b610314565b005b610103610503565b005b61010d61058b565b60405161011a9190611223565b60405180910390f35b61012b6105b1565b604051610138919061117f565b60405180910390f35b6101496105db565b6040516101569190611208565b60405180910390f35b61017960048036038101906101749190610f12565b610601565b005b61019560048036038101906101909190610e97565b61085d565b005b61019f610955565b6040516101ac91906113a0565b60405180910390f35b6000609860009054906101000a900473ffffffffffffffffffffffffffffffffffffffff1673ffffffffffffffffffffffffffffffffffffffff166301e1d1146040518163ffffffff1660e01b815260040160206040518083038186803b15801561021f57600080fd5b505afa158015610233573d6000803e3d6000fd5b505050506040513d601f19601f820116820180604052508101906102579190610f3b565b61025f61095b565b61026991906113ed565b905090565b6000610278610a0c565b73ffffffffffffffffffffffffffffffffffffffff16609860009054906101000a900473ffffffffffffffffffffffffffffffffffffffff1673ffffffffffffffffffffffffffffffffffffffff1614610307576040517f08c379a00000000000000000000000000000000000000000000000000000000081526004016102fe90611320565b60405180910390fd5b61030f61095b565b905090565b61031c610a0c565b73ffffffffffffffffffffffffffffffffffffffff1661033a6105b1565b73ffffffffffffffffffffffffffffffffffffffff1614610390576040517f08c379a000000000000000000000000000000000000000000000000000000000815260040161038790611300565b60405180910390fd5b80609860006101000a81548173ffffffffffffffffffffffffffffffffffffffff021916908373ffffffffffffffffffffffffffffffffffffffff160217905550600060029054906101000a900473ffffffffffffffffffffffffffffffffffffffff1673ffffffffffffffffffffffffffffffffffffffff16609860009054906101000a900473ffffffffffffffffffffffffffffffffffffffff1673ffffffffffffffffffffffffffffffffffffffff16631f1fcd516040518163ffffffff1660e01b815260040160206040518083038186803b15801561047257600080fd5b505afa158015610486573d6000803e3d6000fd5b505050506040513d601f19601f820116820180604052508101906104aa9190610ec0565b73ffffffffffffffffffffffffffffffffffffffff1614610500576040517f08c379a00000000000000000000000000000000000000000000000000000000081526004016104f7906112e0565b60405180910390fd5b50565b61050b610a0c565b73ffffffffffffffffffffffffffffffffffffffff166105296105b1565b73ffffffffffffffffffffffffffffffffffffffff161461057f576040517f08c379a000000000000000000000000000000000000000000000000000000000815260040161057690611300565b60405180910390fd5b6105896000610a14565b565b600060029054906101000a900473ffffffffffffffffffffffffffffffffffffffff1681565b6000603360009054906101000a900473ffffffffffffffffffffffffffffffffffffffff16905090565b609860009054906101000a900473ffffffffffffffffffffffffffffffffffffffff1681565b610609610a0c565b73ffffffffffffffffffffffffffffffffffffffff16609860009054906101000a900473ffffffffffffffffffffffffffffffffffffffff1673ffffffffffffffffffffffffffffffffffffffff1614610698576040517f08c379a000000000000000000000000000000000000000000000000000000000815260040161068f90611320565b60405180910390fd5b600260655414156106de576040517f08c379a00000000000000000000000000000000000000000000000000000000081526004016106d590611380565b60405180910390fd5b600260658190555060008111610729576040517f08c379a000000000000000000000000000000000000000000000000000000000815260040161072090611280565b60405180910390fd5b61073161095b565b811115610773576040517f08c379a000000000000000000000000000000000000000000000000000000000815260040161076a906112a0565b60405180910390fd5b806097600082825461078591906113ed565b925050819055506107963382610ada565b7fc4381c9c7b508979896c55381c1cb8c2aef28d753cff7661f9cd87b9a14584f833823373ffffffffffffffffffffffffffffffffffffffff166301e1d1146040518163ffffffff1660e01b815260040160206040518083038186803b1580156107ff57600080fd5b505afa158015610813573d6000803e3d6000fd5b505050506040513d601f19601f820116820180604052508101906108379190610f3b565b60975460405161084a94939291906111c3565b60405180910390a1600160658190555050565b610865610a0c565b73ffffffffffffffffffffffffffffffffffffffff166108836105b1565b73ffffffffffffffffffffffffffffffffffffffff16146108d9576040517f08c379a00000000000000000000000000000000000000000000000000000000081526004016108d090611300565b60405180910390fd5b600073ffffffffffffffffffffffffffffffffffffffff168173ffffffffffffffffffffffffffffffffffffffff161415610949576040517f08c379a000000000000000000000000000000000000000000000000000000000815260040161094090611260565b60405180910390fd5b61095281610a14565b50565b60975481565b60008060029054906101000a900473ffffffffffffffffffffffffffffffffffffffff1673ffffffffffffffffffffffffffffffffffffffff166370a08231306040518263ffffffff1660e01b81526004016109b7919061117f565b60206040518083038186803b1580156109cf57600080fd5b505afa1580156109e3573d6000803e3d6000fd5b505050506040513d601f19601f82011682018060405250810190610a079190610f3b565b905090565b600033905090565b6000603360009054906101000a900473ffffffffffffffffffffffffffffffffffffffff16905081603360006101000a81548173ffffffffffffffffffffffffffffffffffffffff021916908373ffffffffffffffffffffffffffffffffffffffff1602179055508173ffffffffffffffffffffffffffffffffffffffff168173ffffffffffffffffffffffffffffffffffffffff167f8be0079c531659141344cd1fd0a4f28419497f9722a3daafe3b4186f6b6457e060405160405180910390a35050565b610b278282600060029054906101000a900473ffffffffffffffffffffffffffffffffffffffff1673ffffffffffffffffffffffffffffffffffffffff16610b2b9092919063ffffffff16565b5050565b610bac8363a9059cbb60e01b8484604051602401610b4a92919061119a565b604051602081830303815290604052907bffffffffffffffffffffffffffffffffffffffffffffffffffffffff19166020820180517bffffffffffffffffffffffffffffffffffffffffffffffffffffffff8381831617835250505050610bb1565b505050565b6000610c13826040518060400160405280602081526020017f5361666545524332303a206c6f772d6c6576656c2063616c6c206661696c65648152508573ffffffffffffffffffffffffffffffffffffffff16610c789092919063ffffffff16565b9050600081511115610c735780806020019051810190610c339190610ee9565b610c72576040517f08c379a0000000000000000000000000000000000000000000000000000000008152600401610c6990611360565b60405180910390fd5b5b505050565b6060610c878484600085610c90565b90509392505050565b606082471015610cd5576040517f08c379a0000000000000000000000000000000000000000000000000000000008152600401610ccc906112c0565b60405180910390fd5b610cde85610da4565b610d1d576040517f08c379a0000000000000000000000000000000000000000000000000000000008152600401610d1490611340565b60405180910390fd5b6000808673ffffffffffffffffffffffffffffffffffffffff168587604051610d469190611168565b60006040518083038185875af1925050503d8060008114610d83576040519150601f19603f3d011682016040523d82523d6000602084013e610d88565b606091505b5091509150610d98828286610dc7565b92505050949350505050565b6000808273ffffffffffffffffffffffffffffffffffffffff163b119050919050565b60608315610dd757829050610e27565b600083511115610dea5782518084602001fd5b816040517f08c379a0000000000000000000000000000000000000000000000000000000008152600401610e1e919061123e565b60405180910390fd5b9392505050565b600081359050610e3d816117c4565b92915050565b600081519050610e52816117c4565b92915050565b600081519050610e67816117db565b92915050565b600081359050610e7c816117f2565b92915050565b600081519050610e91816117f2565b92915050565b600060208284031215610ea957600080fd5b6000610eb784828501610e2e565b91505092915050565b600060208284031215610ed257600080fd5b6000610ee084828501610e43565b91505092915050565b600060208284031215610efb57600080fd5b6000610f0984828501610e58565b91505092915050565b600060208284031215610f2457600080fd5b6000610f3284828501610e6d565b91505092915050565b600060208284031215610f4d57600080fd5b6000610f5b84828501610e82565b91505092915050565b610f6d81611443565b82525050565b6000610f7e826113bb565b610f8881856113d1565b9350610f988185602086016114d3565b80840191505092915050565b610fad8161148b565b82525050565b610fbc816114af565b82525050565b6000610fcd826113c6565b610fd781856113dc565b9350610fe78185602086016114d3565b610ff081611535565b840191505092915050565b60006110086026836113dc565b915061101382611546565b604082019050919050565b600061102b6021836113dc565b915061103682611595565b604082019050919050565b600061104e602d836113dc565b9150611059826115e4565b604082019050919050565b60006110716026836113dc565b915061107c82611633565b604082019050919050565b60006110946021836113dc565b915061109f82611682565b604082019050919050565b60006110b76020836113dc565b91506110c2826116d1565b602082019050919050565b60006110da6020836113dc565b91506110e5826116fa565b602082019050919050565b60006110fd601d836113dc565b915061110882611723565b602082019050919050565b6000611120602a836113dc565b915061112b8261174c565b604082019050919050565b6000611143601f836113dc565b915061114e8261179b565b602082019050919050565b61116281611481565b82525050565b60006111748284610f73565b915081905092915050565b60006020820190506111946000830184610f64565b92915050565b60006040820190506111af6000830185610f64565b6111bc6020830184611159565b9392505050565b60006080820190506111d86000830187610f64565b6111e56020830186611159565b6111f26040830185611159565b6111ff6060830184611159565b95945050505050565b600060208201905061121d6000830184610fa4565b92915050565b60006020820190506112386000830184610fb3565b92915050565b600060208201905081810360008301526112588184610fc2565b905092915050565b6000602082019050818103600083015261127981610ffb565b9050919050565b600060208201905081810360008301526112998161101e565b9050919050565b600060208201905081810360008301526112b981611041565b9050919050565b600060208201905081810360008301526112d981611064565b9050919050565b600060208201905081810360008301526112f981611087565b9050919050565b60006020820190508181036000830152611319816110aa565b9050919050565b60006020820190508181036000830152611339816110cd565b9050919050565b60006020820190508181036000830152611359816110f0565b9050919050565b6000602082019050818103600083015261137981611113565b9050919050565b6000602082019050818103600083015261139981611136565b9050919050565b60006020820190506113b56000830184611159565b92915050565b600081519050919050565b600081519050919050565b600081905092915050565b600082825260208201905092915050565b60006113f882611481565b915061140383611481565b9250827fffffffffffffffffffffffffffffffffffffffffffffffffffffffffffffffff0382111561143857611437611506565b5b828201905092915050565b600061144e82611461565b9050919050565b60008115159050919050565b600073ffffffffffffffffffffffffffffffffffffffff82169050919050565b6000819050919050565b60006114968261149d565b9050919050565b60006114a882611461565b9050919050565b60006114ba826114c1565b9050919050565b60006114cc82611461565b9050919050565b60005b838110156114f15780820151818401526020810190506114d6565b83811115611500576000848401525b50505050565b7f4e487b7100000000000000000000000000000000000000000000000000000000600052601160045260246000fd5b6000601f19601f8301169050919050565b7f4f776e61626c653a206e6577206f776e657220697320746865207a65726f206160008201527f6464726573730000000000000000000000000000000000000000000000000000602082015250565b7f426f72726f77696e6720616d6f756e74206d75737420626520706f736974697660008201527f6500000000000000000000000000000000000000000000000000000000000000602082015250565b7f526571756573746564206d6f7265207468656e20617661696c61626c6520666f60008201527f72206120626f72726f77696e6700000000000000000000000000000000000000602082015250565b7f416464726573733a20696e73756666696369656e742062616c616e636520666f60008201527f722063616c6c0000000000000000000000000000000000000000000000000000602082015250565b7f537472617465677920646f206e6f742077616e74207661756c7420617373657460008201527f7300000000000000000000000000000000000000000000000000000000000000602082015250565b7f4f776e61626c653a2063616c6c6572206973206e6f7420746865206f776e6572600082015250565b7f4c656e6465723a2063616c6c6572206973206e6f742061207374726174656779600082015250565b7f416464726573733a2063616c6c20746f206e6f6e2d636f6e7472616374000000600082015250565b7f5361666545524332303a204552433230206f7065726174696f6e20646964206e60008201527f6f74207375636365656400000000000000000000000000000000000000000000602082015250565b7f5265656e7472616e637947756172643a207265656e7472616e742063616c6c00600082015250565b6117cd81611443565b81146117d857600080fd5b50565b6117e481611455565b81146117ef57600080fd5b50565b6117fb81611481565b811461180657600080fd5b5056fea2646970667358221220fe88967de999cafb32ded059313d4b4bba634d003813e37c759dc373528c747364736f6c63430008040033",
  "linkReferences": {},
  "deployedLinkReferences": {}
}