{
  "_format": "hh-sol-artifact-1",
  "contractName": "SimpleVault",
  "sourceName": "contracts/SimpleVault.sol",
  "abi": [
    {
      "inputs": [],
      "name": "assets",
      "outputs": [
        {
          "internalType": "contract IERC20Upgradeable",
          "name": "",
          "type": "address"
        }
      ],
      "stateMutability": "view",
      "type": "function"
    }
  ],
  "bytecode": "0x608060405234801561001057600080fd5b50610109806100206000396000f3fe6080604052348015600f57600080fd5b506004361060285760003560e01c806371a9730514602d575b600080fd5b60336047565b604051603e9190607a565b60405180910390f35b600060029054906101000a900473ffffffffffffffffffffffffffffffffffffffff1681565b60748160b3565b82525050565b6000602082019050608d6000830184606d565b92915050565b600073ffffffffffffffffffffffffffffffffffffffff82169050919050565b600060bc8260c3565b9050919050565b600060cc826093565b905091905056fea26469706673582212203482fca4aeef30d8fcd108ec81b4b3fc20194591756db62abb7440426696dca164736f6c63430008040033",
  "linkReferences": {},
  "deployedLinkReferences": {}
}